{
  "contractName": "Greeter",
  "abi": [
    {
      "inputs": [
        {
          "internalType": "string",
          "name": "_greeting",
          "type": "string"
        }
      ],
      "stateMutability": "nonpayable",
      "type": "constructor"
    },
    {
      "inputs": [],
      "name": "greeting",
      "outputs": [
        {
          "internalType": "string",
          "name": "",
          "type": "string"
        }
      ],
      "stateMutability": "view",
      "type": "function",
      "constant": true
    },
    {
      "inputs": [],
      "name": "kill",
      "outputs": [],
      "stateMutability": "nonpayable",
      "type": "function"
    },
    {
      "inputs": [
        {
          "internalType": "string",
          "name": "_greeting",
          "type": "string"
        }
      ],
      "name": "setGreeting",
      "outputs": [],
      "stateMutability": "nonpayable",
      "type": "function"
    },
    {
      "inputs": [
        {
          "internalType": "string",
          "name": "name",
          "type": "string"
        }
      ],
      "name": "greet",
      "outputs": [
        {
          "internalType": "string",
          "name": "",
          "type": "string"
        }
      ],
      "stateMutability": "view",
      "type": "function",
      "constant": true
    }
  ],
  "bytecode": "0x60806040523480156200001157600080fd5b5060405162000a3638038062000a368339818101604052810190620000379190620001c5565b336000806101000a81548173ffffffffffffffffffffffffffffffffffffffff021916908373ffffffffffffffffffffffffffffffffffffffff16021790555080600190805190602001906200008f92919062000097565b50506200039a565b828054620000a590620002ab565b90600052602060002090601f016020900481019282620000c9576000855562000115565b82601f10620000e457805160ff191683800117855562000115565b8280016001018555821562000115579182015b8281111562000114578251825591602001919060010190620000f7565b5b50905062000124919062000128565b5090565b5b808211156200014357600081600090555060010162000129565b5090565b60006200015e62000158846200023f565b62000216565b9050828152602081018484840111156200017d576200017c6200037a565b5b6200018a84828562000275565b509392505050565b600082601f830112620001aa57620001a962000375565b5b8151620001bc84826020860162000147565b91505092915050565b600060208284031215620001de57620001dd62000384565b5b600082015167ffffffffffffffff811115620001ff57620001fe6200037f565b5b6200020d8482850162000192565b91505092915050565b60006200022262000235565b9050620002308282620002e1565b919050565b6000604051905090565b600067ffffffffffffffff8211156200025d576200025c62000346565b5b620002688262000389565b9050602081019050919050565b60005b838110156200029557808201518184015260208101905062000278565b83811115620002a5576000848401525b50505050565b60006002820490506001821680620002c457607f821691505b60208210811415620002db57620002da62000317565b5b50919050565b620002ec8262000389565b810181811067ffffffffffffffff821117156200030e576200030d62000346565b5b80604052505050565b7f4e487b7100000000000000000000000000000000000000000000000000000000600052602260045260246000fd5b7f4e487b7100000000000000000000000000000000000000000000000000000000600052604160045260246000fd5b600080fd5b600080fd5b600080fd5b600080fd5b6000601f19601f8301169050919050565b61068c80620003aa6000396000f3fe608060405234801561001057600080fd5b506004361061004c5760003560e01c806341c0e1b514610051578063a41368621461005b578063ead710c414610077578063ef690cc0146100a7575b600080fd5b6100596100c5565b005b610075600480360381019061007091906103b8565b610134565b005b610091600480360381019061008c91906103b8565b61014e565b60405161009e919061048f565b60405180910390f35b6100af6101eb565b6040516100bc919061048f565b60405180910390f35b60008054906101000a900473ffffffffffffffffffffffffffffffffffffffff1673ffffffffffffffffffffffffffffffffffffffff163373ffffffffffffffffffffffffffffffffffffffff161415610132573373ffffffffffffffffffffffffffffffffffffffff16ff5b565b806001908051906020019061014a9291906102a5565b5050565b60606101e46001805461016090610570565b80601f016020809104026020016040519081016040528092919081815260200182805461018c90610570565b80156101d95780601f106101ae576101008083540402835291602001916101d9565b820191906000526020600020905b8154815290600101906020018083116101bc57829003601f168201915b505050505083610279565b9050919050565b600180546101f890610570565b80601f016020809104026020016040519081016040528092919081815260200182805461022490610570565b80156102715780601f1061024657610100808354040283529160200191610271565b820191906000526020600020905b81548152906001019060200180831161025457829003601f168201915b505050505081565b6060828260405160200161028e92919061046b565b604051602081830303815290604052905092915050565b8280546102b190610570565b90600052602060002090601f0160209004810192826102d3576000855561031a565b82601f106102ec57805160ff191683800117855561031a565b8280016001018555821561031a579182015b828111156103195782518255916020019190600101906102fe565b5b509050610327919061032b565b5090565b5b8082111561034457600081600090555060010161032c565b5090565b600061035b610356846104d6565b6104b1565b90508281526020810184848401111561037757610376610636565b5b61038284828561052e565b509392505050565b600082601f83011261039f5761039e610631565b5b81356103af848260208601610348565b91505092915050565b6000602082840312156103ce576103cd610640565b5b600082013567ffffffffffffffff8111156103ec576103eb61063b565b5b6103f88482850161038a565b91505092915050565b600061040c82610507565b6104168185610512565b935061042681856020860161053d565b61042f81610645565b840191505092915050565b600061044582610507565b61044f8185610523565b935061045f81856020860161053d565b80840191505092915050565b6000610477828561043a565b9150610483828461043a565b91508190509392505050565b600060208201905081810360008301526104a98184610401565b905092915050565b60006104bb6104cc565b90506104c782826105a2565b919050565b6000604051905090565b600067ffffffffffffffff8211156104f1576104f0610602565b5b6104fa82610645565b9050602081019050919050565b600081519050919050565b600082825260208201905092915050565b600081905092915050565b82818337600083830152505050565b60005b8381101561055b578082015181840152602081019050610540565b8381111561056a576000848401525b50505050565b6000600282049050600182168061058857607f821691505b6020821081141561059c5761059b6105d3565b5b50919050565b6105ab82610645565b810181811067ffffffffffffffff821117156105ca576105c9610602565b5b80604052505050565b7f4e487b7100000000000000000000000000000000000000000000000000000000600052602260045260246000fd5b7f4e487b7100000000000000000000000000000000000000000000000000000000600052604160045260246000fd5b600080fd5b600080fd5b600080fd5b600080fd5b6000601f19601f830116905091905056fea264697066735822122058619077252ae007fe55659d0f1d49ffb444ea49ee27a83e9e215ad42934b5cf64736f6c63430008070033",
  "immutableReferences": {},
  "source": "// SPDX-License-Identifier: MIT\npragma solidity >=0.4.22 <0.9.0;\n\n// REF: https://github.com/ethereum/ethereum-org/blob/master/views/content/greeter.md\n\ncontract Mortal {\n    /* Define variable owner of the type address */\n    address owner;\n\n    /* This constructor is executed at initialization and sets the owner of the contract */\n    constructor() {\n        owner = msg.sender;\n    }\n\n    /* Function to recover the funds on the contract */\n    function kill() public {\n        if (msg.sender == owner) selfdestruct(payable(msg.sender));\n    }\n}\n\ncontract Greeter is Mortal {\n    string public greeting;\n\n    constructor(string memory _greeting) {\n        greeting = _greeting;\n    }\n\n    function setGreeting(string memory _greeting) public {\n        greeting = _greeting;\n    }\n\n    function greet(string memory name) public view returns (string memory) {\n        return concat(greeting, name);\n    }\n\n    // REF: https://betterprogramming.pub/solidity-playing-with-strings-aca62d118ae5\n    function concat(string memory s1, string memory s2)\n        private\n        pure\n        returns (string memory)\n    {\n        return string(abi.encodePacked(s1, s2));\n    }\n}\n",
  "sourcePath": "/home/limcheekin/ws/blockchain/eth-dapps-nextjs-boiletplate/contracts/Greeter.sol",
  "compiler": {
    "name": "solc",
    "version": "0.8.7+commit.e28d00a7.Emscripten.clang"
  },
  "schemaVersion": "3.4.3",
  "updatedAt": "2021-09-12T03:52:38.181Z",
  "networkType": "ethereum",
  "devdoc": {
    "kind": "dev",
    "methods": {},
    "version": 1
  },
  "userdoc": {
    "kind": "user",
    "methods": {},
    "version": 1
  }
}