{
  "contractName": "Greeter",
  "abi": [
    {
      "inputs": [
        {
          "internalType": "string",
          "name": "_greeting",
          "type": "string"
        }
      ],
      "stateMutability": "nonpayable",
      "type": "constructor"
    },
    {
      "inputs": [],
      "name": "greeting",
      "outputs": [
        {
          "internalType": "string",
          "name": "",
          "type": "string"
        }
      ],
      "stateMutability": "view",
      "type": "function",
      "constant": true
    },
    {
      "inputs": [],
      "name": "kill",
      "outputs": [],
      "stateMutability": "nonpayable",
      "type": "function"
    },
    {
      "inputs": [
        {
          "internalType": "string",
          "name": "_greeting",
          "type": "string"
        }
      ],
      "name": "setGreeting",
      "outputs": [],
      "stateMutability": "nonpayable",
      "type": "function"
    },
    {
      "inputs": [
        {
          "internalType": "string",
          "name": "name",
          "type": "string"
        }
      ],
      "name": "greet",
      "outputs": [
        {
          "internalType": "string",
          "name": "",
          "type": "string"
        }
      ],
      "stateMutability": "view",
      "type": "function",
      "constant": true
    }
  ],
  "bytecode": "0x60806040523480156200001157600080fd5b5060405162000a3638038062000a368339818101604052810190620000379190620002e4565b336000806101000a81548173ffffffffffffffffffffffffffffffffffffffff021916908373ffffffffffffffffffffffffffffffffffffffff16021790555080600190805190602001906200008f92919062000097565b50506200039a565b828054620000a59062000364565b90600052602060002090601f016020900481019282620000c9576000855562000115565b82601f10620000e457805160ff191683800117855562000115565b8280016001018555821562000115579182015b8281111562000114578251825591602001919060010190620000f7565b5b50905062000124919062000128565b5090565b5b808211156200014357600081600090555060010162000129565b5090565b6000604051905090565b600080fd5b600080fd5b600080fd5b600080fd5b6000601f19601f8301169050919050565b7f4e487b7100000000000000000000000000000000000000000000000000000000600052604160045260246000fd5b620001b08262000165565b810181811067ffffffffffffffff82111715620001d257620001d162000176565b5b80604052505050565b6000620001e762000147565b9050620001f58282620001a5565b919050565b600067ffffffffffffffff82111562000218576200021762000176565b5b620002238262000165565b9050602081019050919050565b60005b838110156200025057808201518184015260208101905062000233565b8381111562000260576000848401525b50505050565b60006200027d6200027784620001fa565b620001db565b9050828152602081018484840111156200029c576200029b62000160565b5b620002a984828562000230565b509392505050565b600082601f830112620002c957620002c86200015b565b5b8151620002db84826020860162000266565b91505092915050565b600060208284031215620002fd57620002fc62000151565b5b600082015167ffffffffffffffff8111156200031e576200031d62000156565b5b6200032c84828501620002b1565b91505092915050565b7f4e487b7100000000000000000000000000000000000000000000000000000000600052602260045260246000fd5b600060028204905060018216806200037d57607f821691505b6020821081141562000394576200039362000335565b5b50919050565b61068c80620003aa6000396000f3fe608060405234801561001057600080fd5b506004361061004c5760003560e01c806341c0e1b514610051578063a41368621461005b578063ead710c414610077578063ef690cc0146100a7575b600080fd5b6100596100c5565b005b610075600480360381019061007091906104a2565b610134565b005b610091600480360381019061008c91906104a2565b61014e565b60405161009e9190610573565b60405180910390f35b6100af6101eb565b6040516100bc9190610573565b60405180910390f35b60008054906101000a900473ffffffffffffffffffffffffffffffffffffffff1673ffffffffffffffffffffffffffffffffffffffff163373ffffffffffffffffffffffffffffffffffffffff161415610132573373ffffffffffffffffffffffffffffffffffffffff16ff5b565b806001908051906020019061014a9291906102a5565b5050565b60606101e460018054610160906105c4565b80601f016020809104026020016040519081016040528092919081815260200182805461018c906105c4565b80156101d95780601f106101ae576101008083540402835291602001916101d9565b820191906000526020600020905b8154815290600101906020018083116101bc57829003601f168201915b505050505083610279565b9050919050565b600180546101f8906105c4565b80601f0160208091040260200160405190810160405280929190818152602001828054610224906105c4565b80156102715780601f1061024657610100808354040283529160200191610271565b820191906000526020600020905b81548152906001019060200180831161025457829003601f168201915b505050505081565b6060828260405160200161028e929190610632565b604051602081830303815290604052905092915050565b8280546102b1906105c4565b90600052602060002090601f0160209004810192826102d3576000855561031a565b82601f106102ec57805160ff191683800117855561031a565b8280016001018555821561031a579182015b828111156103195782518255916020019190600101906102fe565b5b509050610327919061032b565b5090565b5b8082111561034457600081600090555060010161032c565b5090565b6000604051905090565b600080fd5b600080fd5b600080fd5b600080fd5b6000601f19601f8301169050919050565b7f4e487b7100000000000000000000000000000000000000000000000000000000600052604160045260246000fd5b6103af82610366565b810181811067ffffffffffffffff821117156103ce576103cd610377565b5b80604052505050565b60006103e1610348565b90506103ed82826103a6565b919050565b600067ffffffffffffffff82111561040d5761040c610377565b5b61041682610366565b9050602081019050919050565b82818337600083830152505050565b6000610445610440846103f2565b6103d7565b90508281526020810184848401111561046157610460610361565b5b61046c848285610423565b509392505050565b600082601f8301126104895761048861035c565b5b8135610499848260208601610432565b91505092915050565b6000602082840312156104b8576104b7610352565b5b600082013567ffffffffffffffff8111156104d6576104d5610357565b5b6104e284828501610474565b91505092915050565b600081519050919050565b600082825260208201905092915050565b60005b8381101561052557808201518184015260208101905061050a565b83811115610534576000848401525b50505050565b6000610545826104eb565b61054f81856104f6565b935061055f818560208601610507565b61056881610366565b840191505092915050565b6000602082019050818103600083015261058d818461053a565b905092915050565b7f4e487b7100000000000000000000000000000000000000000000000000000000600052602260045260246000fd5b600060028204905060018216806105dc57607f821691505b602082108114156105f0576105ef610595565b5b50919050565b600081905092915050565b600061060c826104eb565b61061681856105f6565b9350610626818560208601610507565b80840191505092915050565b600061063e8285610601565b915061064a8284610601565b9150819050939250505056fea264697066735822122094fc0c2f1d112d050878b6bb7e987c413c267ba13bb0b2d601860166cb1472fe64736f6c634300080c0033",
  "immutableReferences": {},
  "source": "// SPDX-License-Identifier: MIT\npragma solidity ^0.8.0;\n\n// REF: https://github.com/ethereum/ethereum-org/blob/master/views/content/greeter.md\n\ncontract Mortal {\n    /* Define variable owner of the type address */\n    address owner;\n\n    /* This constructor is executed at initialization and sets the owner of the contract */\n    constructor() {\n        owner = msg.sender;\n    }\n\n    /* Function to recover the funds on the contract */\n    function kill() public {\n        if (msg.sender == owner) selfdestruct(payable(msg.sender));\n    }\n}\n\ncontract Greeter is Mortal {\n    string public greeting;\n\n    constructor(string memory _greeting) {\n        greeting = _greeting;\n    }\n\n    function setGreeting(string memory _greeting) public {\n        greeting = _greeting;\n    }\n\n    function greet(string memory name) public view returns (string memory) {\n        return concat(greeting, name);\n    }\n\n    // REF: https://betterprogramming.pub/solidity-playing-with-strings-aca62d118ae5\n    function concat(string memory s1, string memory s2)\n        private\n        pure\n        returns (string memory)\n    {\n        return string(abi.encodePacked(s1, s2));\n    }\n}\n",
  "sourcePath": "/home/limcheekin/ws/blockchain/eth-dapps-nextjs-boiletplate/contracts/Greeter.sol",
  "compiler": {
    "name": "solc",
    "version": "0.8.12+commit.f00d7308.Emscripten.clang"
  },
  "schemaVersion": "3.4.5",
  "updatedAt": "2022-03-03T03:15:42.149Z",
  "networkType": "ethereum",
  "devdoc": {
    "kind": "dev",
    "methods": {},
    "version": 1
  },
  "userdoc": {
    "kind": "user",
    "methods": {},
    "version": 1
  }
}